:020000040000FA
:020000002928AD
:08000800A000030EA1000B197A
:100010000C288C1A182823280B1100308100861B0D
:10002000122815288613051523288617051123285D
:100030008C1200301A0898181E28232885101812D0
:10004000181285142328210E8300A00E200E09000B
:1000500008008301203084008001840A841F2C283A
:10006000A03084008001840A0000031D322883121E
:100070008501860183160030850006308600003039
:10008000810000308B0083120030810083168130A4
:100090009900181218158312981783168C1683125C
:1000A000181018168316811281158B160B178B17D3
:1000B000831285140030A200AA30A2000230221C54
:1000C000820705156628051100000000A21C8207A2
:1000D00005156D28051100000000221D8207051579
:1000E0007428051100000000A21D820705157B2859
:1000F000051100000000221E820705158228051147
:1001000000000000A21E82070515892805110000C5
:100110000000221F8207051590280511000000002D
:10012000A21F820705159728051100000000231C57
:10013000820705156628051100000000A31C820730
:1001400005156D28051100000000231D8207051507
:100150007428051100000000A31D820705157B28E7
:10016000051100000000231E8207051582280511D5
:1001700000000000A31E8207051589280511000054
:100180000000231F820705159028051100000000BC
:10019000A31F820705159728051100000000221CE7
:1001A00082070515D628051100000000A21C820751
:0C01B0000515D6280511000000005C2891
:02400E00423F2F
:00000001FF
