:020000040000FA
:02000000AC282A
:08000800F000030EF100861266
:100010000B190D288C1A5C28A1280B116630810061
:10002000861175080310730203181B281728F7019F
:10003000F801F4111F28F4150000000000007608F4
:10004000031073020318F411F70B2D280008A00009
:10005000840A0008A100840A3728F71F33280530D6
:10006000F70000003728000000000000000086159F
:10007000F80B47280008A200840A0008A300840A9D
:100080000008A400840A0008A500840A5728F81F65
:1000900053280530F8000000F41D0130F41DF7006E
:1000A000F41DF8005728FD30F200F20F5528F30F29
:1000B0005A28F4147414A1288C121A089A010612F2
:1000C000FB000408FA007B08741A72280311403AF6
:1000D00003196C28A9209B28A6207416F412A030BE
:1000E000F9009B2803110D3A03198E280D3A0311CC
:1000F0001B3A031999281B3A790884007B08800071
:10010000F90A79080311AC3A031987288B2886135A
:100110007412F416F9017A0884009B287908840087
:1001200020308000F90A79080311AC3A03198728B6
:100130008E288613741298189E28A1280616181265
:10014000A128710E8300F00E700E090086170613A9
:10015000080006178613080083128501860183169E
:1001600000308500063086000030810000308B00B2
:100170008312003081008316813099001812181103
:10018000831298171810181683168C16831681126E
:1001900081110111811001108B160B178B1783121F
:1001A00083130E30F3009630F500DE30F600053094
:1001B000F700F8002630840074107415F410F41160
:1001C0007412F4127413F413061286130613002328
:1001D000741CE828F4181A2A8612741DD82B000003
:1001E0000000F41D142A201CF7288616F928861210
:1001F0000000A01CFD288616FF2886120000201D86
:1002000003298616052986120000A01D09298616D5
:100210000B2986120000201E0F298616112986122E
:100220000000A01E15298616172986120000201F1F
:100230001B2986161D2986120000A01F212986165B
:10024000232986120000211C2729861629298612B7
:100250000000A11C2D2986162F2986120000211DC1
:1002600033298616352986120000A11D39298616E4
:100270003B2986120000211E3F298616412986123D
:100280000000A11E45298616472986120000211F5D
:100290004B2986164D2986120000A11F512986166A
:1002A000532986120000221C5729861659298612C6
:1002B0000000A21C5D2986165F2986120000221DFF
:1002C00063298616652986120000A21D69298616F3
:1002D0006B2986120000221E6F298616712986124C
:1002E0000000A21E75298616772986120000221F9B
:1002F0007B2986167D2986120000A21F8129861679
:10030000832986120000231C8729861689298612D4
:100310000000A31C8D2986168F2986120000231D3C
:1003200093298616952986120000A31D9929861601
:100330009B2986120000231E9F298616A12986125A
:100340000000A31EA5298616A72986120000231FD8
:10035000AB298616AD2986120000A31FB129861687
:10036000B32986120000241CB7298616B9298612E3
:100370000000A41CBD298616BF2986120000241D7A
:10038000C3298616C52986120000A41DC929861610
:10039000CB2986120000241ECF298616D129861269
:1003A0000000A41ED5298616D72986120000241F16
:1003B000DB298616DD2986120000A41FE129861696
:1003C000E32986120000251CE7298616E9298612F2
:1003D0000000A51CED298616EF2986120000251DB8
:1003E000F3298616F52986120000A51DF92986161F
:1003F000FB2986120000251EFF298616012A861277
:100400000000A51E052A8616072A86120000251F51
:100410000B2A86160D2A86120000A51F112A8616A1
:10042000132A8612000000000000000000000000F7
:100430007410E82886128611FA30F200F20F1E2A94
:100440000530F700F80000000000000086158B1250
:10045000263084000008A000840A0008A100840A55
:100460000008A200840A0008A300840A0008A4006F
:10047000840A0008A500840A26308400FB30F200BC
:10048000F20F402A000000008611F830F200F20F4F
:10049000472A8615D330F200F20F4C2A8611F83025
:1004A000F200F20F512A8615D330F200F20F562ACD
:1004B0008611F830F200F20F5B2A8615D330F20075
:1004C000F20F602A8611F830F200F20F652A8615C5
:1004D000D330F200F20F6A2A8611F830F200F20FE0
:1004E0006F2A8615D330F200F20F742A8611D330AA
:1004F000F200F20F792A8615F830F200F20F7E2A08
:100500008611D330F200F20F832A8615F830F200FC
:10051000F20F882A8611D330F200F20F8D2A861549
:10052000F830F200F20F922A8611D330F200F20F67
:10053000972A8615F830F200F20F9C2A8611D330E4
:10054000F200F20FA12A8615F830F200F20FA62A67
:100550008611D330F200F20FAB2A8615F830F20084
:10056000F20FB02A8611F830F200F20FB52A861584
:10057000D330F200F20FBA2A8611F830F200F20FEF
:10058000BF2A8615D330F200F20FC42A8611F83044
:10059000F200F20FC92A8615D330F200F20FCE2AEC
:1005A0008611F830F200F20FD32A8615D330F2000C
:1005B000F20FD82A8611F830F200F20FDD2A8615E4
:1005C000D330F200F20FE22A8611F830F200F20F77
:1005D000E72A8615D830F200F20FEC2AF4107419CD
:1005E000F22AF62A74110230F300FA2A74150E303A
:1005F000F30000006B3081000B118B16F411E8281A
:10060000F4170030A600A700A800A900AA00AB00BC
:10061000FF30AC00FF30AD00FF30AE00FF30AF0068
:10062000FF30B0001F30B1000130B2000030B30025
:100630000030B4000030B5000030B6001030B70014
:100640000130B8000030B9000030BA000030BB0003
:100650000030BC001030BD00B930BE002B30BF00F0
:100660000030C0000030C1000030C2001030C300B4
:100670009130C400A830C5006A30C6008030C70081
:100680001230C8001730C9009130CA009130CB0039
:10069000A230CC008030CD001A30CE001530CF0013
:1006A0009130D000A830D100AA30D2008030D300E1
:1006B0001230D4001530D5009130D6002B30D70041
:1006C0006930D8000030D9005130DA001730DB0033
:1006D0000130DC000030DD000030DE000030DF00E3
:1006E0000030E0001030E1000130E2000030E300B3
:1006F0000030E4000030E5000030E6001030E70094
:10070000FF30E800FF30E900FF30EA00FF30EB0087
:10071000FF30EC001F30ED000800F4130030A6009D
:10072000A700A800A900AA00AB00AC00AD00AE0075
:10073000AF00B000B100B200B300B400B500B60025
:10074000B700B800B900BA00BB00BC00BD00BE00D5
:10075000BF00C000C100C200C300C400C500C60085
:10076000C700C800C900CA00CB00CC00CD00CE0035
:10077000CF00D000D100D200D300D400D500D600E5
:10078000D700D800D900DA00DB00DC00DD00DE0095
:10079000DF00E000E100E200E300E400E500E60045
:1007A000E700E800E900EA00EB00EC00ED000800DB
:1007B000F41EE8280B138B12FE017413F41B8D2317
:1007C000A030840000080311313A0319FF2B313A9D
:1007D0000311323A0319022C323A0311243A031955
:1007E000FC2B243A0311263A0319FE2B263A031157
:1007F000523A03190028052C0023052C052C2C3017
:10080000FD000D2C5030FD000D2CF4128C129A01BD
:100810000B1781000B118B16E828840A04080311BA
:10082000AC3A0319052C7D087E07FF000008202440
:10083000741BFE0A741B1E2C74170D2C74130D2CC4
:1008400083160311413A0319232D413A0311423A09
:1008500003192F2D423A0311433A03193B2D433A12
:100860000311443A0319472D443A0311453A031939
:10087000532D453A0311463A03195F2D463A0311A9
:10088000473A03196B2D473A0311483A0319772D5C
:10089000483A0311493A0319832D493A03114A3A58
:1008A00003198F2D4A3A03114B3A03199B2D4B3AEA
:1008B00003114C3A0319A72D4C3A03114D3A031971
:1008C000B32D4D3A03114E3A0319BF2D4E3A031181
:1008D0004F3A0319CB2D4F3A0311503A0319D72D34
:1008E000503A0311513A0319E32D513A0311523A88
:1008F0000319EF2D523A0311533A0319FB2D533AC2
:100900000311543A0319072E543A0311553A0319A7
:10091000132E553A0311563A03191F2E563A031156
:10092000573A03192B2E573A0311583A0319372E09
:10093000583A0311593A0319432E593A03115A3AB6
:1009400003194F2E5A3A0311203A03195B2E203A0D
:100950000311213A0319672E213A0311223A031990
:10096000732E223A0311233A03197F2E233A0311DF
:10097000253A03198B2E253A0311283A0319972E8D
:10098000283A0311293A0319A32E293A03112A3AC6
:100990000319AF2E2A3A03112B3A0319BB2E2B3A17
:1009A00003112D3A0319C72E2D3A03112E3A0319BC
:1009B000D32E2E3A0311303A0319DF2E303A0311A9
:1009C000313A0319EB2E313A0311323A0319F72E5B
:1009D000323A0311333A0319032F333A0311343AED
:1009E00003190F2F343A0311353A03191B2F353AE7
:1009F0000311363A0319272F363A0311373A0319F0
:100A0000332F373A0311383A03193F2F383A03117D
:100A1000393A03194B2F393A03113A3A0319572F30
:100A20003A3A03113D3A0319632F3D3A03113F3A15
:100A300003196F2F3F3A03112F3A03197B2F2F3AD7
:100A4000882F831208000230AC000530AD0007305B
:100A5000AE000530AF000530B0009627212D0330E1
:100A6000AC000530AD000330AE000530AF00033000
:100A7000B0009627212D0630AC000130AD000130CA
:100A8000AE000130AF000630B0009627212D0330B4
:100A9000AC000530AD000530AE000530AF000330CE
:100AA000B0009627212D0730AC000130AD00033097
:100AB000AE000130AF000730B0009627212D07307F
:100AC000AC000130AD000330AE000130AF000130AA
:100AD000B0009627212D0730AC000130AD00053065
:100AE000AE000530AF000730B0009627212D05304D
:100AF000AC000530AD000730AE000530AF0005306A
:100B0000B0009627212D0730AC000230AD00023036
:100B1000AE000230AF000730B0009627212D07301D
:100B2000AC000430AD000430AE000530AF0007303B
:100B3000B0009627212D0530AC000530AD00033004
:100B4000AE000530AF000530B0009627212D0130F2
:100B5000AC000130AD000130AE000130AF00073015
:100B6000B0009627212D0530AC000730AD000730CE
:100B7000AE000530AF000530B0009627212D0330C0
:100B8000AC000530AD000530AE000530AF000530DB
:100B9000B0009627212D0730AC000530AD000530A0
:100BA000AE000530AF000730B0009627212D07308A
:100BB000AC000530AD000730AE000130AF000130B1
:100BC000B0009627212D0730AC000530AD00053070
:100BD000AE000730AF000330B0009627212D07305C
:100BE000AC000530AD000730AE000330AF0005307B
:100BF000B0009627212D0730AC000130AD00073042
:100C0000AE000430AF000730B0009627212D07302A
:100C1000AC000230AD000230AE000230AF00023056
:100C2000B0009627212D0530AC000530AD00053011
:100C3000AE000530AF000730B0009627212D0530FB
:100C4000AC000530AD000530AE000530AF0002301D
:100C5000B0009627212D0530AC000530AD000730DF
:100C6000AE000730AF000530B0009627212D0530CB
:100C7000AC000530AD000230AE000530AF000530ED
:100C8000B0009627212D0530AC000530AD000230B4
:100C9000AE000230AF000230B0009627212D0730A1
:100CA000AC000430AD000230AE000130AF000730C0
:100CB000B0009627212D0030AC000030AD00003090
:100CC000AE000030AF000030B0009627212D02307A
:100CD000AC000230AD000230AE000030AF00023098
:100CE000B0009627212D0530AC000530AD00003056
:100CF000AE000030AF000030B0009627212D053047
:100D0000AC000730AD000530AE000730AF00053055
:100D1000B0009627212D0530AC000430AD00023024
:100D2000AE000130AF000530B0009627212D023013
:100D3000AC000130AD000130AE000130AF00023038
:100D4000B0009627212D0230AC000430AD000430F5
:100D5000AE000430AF000230B0009627212D0030E5
:100D6000AC000530AD000230AE000530AF00003001
:100D7000B0009627212D0030AC000230AD000730C6
:100D8000AE000230AF000030B0009627212D0030B9
:100D9000AC000030AD000730AE000030AF000030D6
:100DA000B0009627212D0030AC000030AD0000309F
:100DB000AE000030AF000230B0009627212D073082
:100DC000AC000530AD000530AE000530AF00073097
:100DD000B0009627212D0430AC000630AD00053060
:100DE000AE000430AF000430B0009627212D07304C
:100DF000AC000430AD000730AE000130AF0007306A
:100E0000B0009627212D0730AC000430AD0007302C
:100E1000AE000430AF000730B0009627212D05301A
:100E2000AC000530AD000730AE000430AF00043038
:100E3000B0009627212D0730AC000130AD000730FF
:100E4000AE000430AF000730B0009627212D0730E8
:100E5000AC000130AD000730AE000530AF00073008
:100E6000B0009627212D0730AC000430AD000230D1
:100E7000AE000230AF000230B0009627212D0730BF
:100E8000AC000530AD000730AE000530AF000730D4
:100E9000B0009627212D0730AC000530AD0007309B
:100EA000AE000430AF000730B0009627212D00308F
:100EB000AC000230AD000030AE000230AF000030B8
:100EC000B0009627212D0030AC000730AD00003077
:100ED000AE000730AF000030B0009627212D07305C
:100EE000AC000430AD000230AE000030AF00023084
:100EF000B0009627212D0430AC000230AD00023046
:100F0000AE000230AF000130B0009627212D212D18
:100F10000730AC000730AD000730AE000730AF003F
:100F20000730B0009627212DF0340F340408FC0060
:100F30007F088400741F9427741B95278005741BF9
:100F40002C0E741F2C0880040408063E8400741FB5
:100F50009427741B95278005741B2D0E741F2D0874
:100F600080040408063E8400741F9427741B952790
:100F70008005741B2E0E741F2E0880040408063E84
:100F80008400741F9427741B95278005741B2F0EF3
:100F9000741F2F0880040408063E8400741F9427E1
:100FA000741B95278005741B300E741F3008800455
:100FB0007C08840008000D340A3443346F347034E4
:100FC0007934723469346734683474342034323498
:100FD0003034303435342C34203452346934633472
:100FE0006134723464346F342034643465342034B2
:100FF00041347A3461346D34623475346A34613426
:02400E00423F2F
:00000001FF
